S01E00004D6F746F7220537065656420436F6E74726F6C6C65722E73726563A0
S11300000C942A000C9400010C9447000C944700B3
S11300100C9447000C9447000C9447000C94470040
S11300200C9447000C9447000C9447000C94470030
S11300300C9447000C9447000C9447000C94470020
S11300400C9447000C9447000C9447000C94470010
S11300500C94470011241FBECFE5D4E0DEBFCDBF12
S113006010E0A0E6B0E0EAE3F5E002C005900D92EE
S1130070A837B107D9F720E0A8E7B0E001C01D9286
S1130080A937B207E1F70E94A8000C949B020C94D4
S11300900000D09887E886B980EC87B90895369A2D
S11300A0349BFECF0895909885BB919A89EF90E098
S11300B00197F1F700C00000919808958FEF84BB79
S11300C0889A899A88E390E00E9453008CE090E03B
S11300D00E9453000895909A85BB919A89EF90E00D
S11300E00197F1F700C0000091980895CF93DF9332
S11300F0EC018881882331F021960E946B0089915C
S11301008111FBCFDF91CF910895909881E085BB59
S1130110919A89EF90E00197F1F700C0000091985F
S11301200895811107C0862F90E080589F4F0E9448
S113013053000895813031F4862F90E080549F4F0E
S11301400E945300089580E48BBF82E085BF089528
S1130150CF93DF93CDB7DEB72A970FB6F894DEBFFF
S11301600FBECDBF0E9449000E945E000E94320172
S11301700E94A30078940E9485006FE081E00E94B1
S1130180910080E690E00E9476002FEF84E39CE0EB
S1130190215080409040E1F700C000000E9485009B
S11301A089E690E00E9476000E944F0064B175B128
S11301B080E090E00E946A0128E431EE4AE75EE3C1
S11301C00E94D0010E943E016CBF8CB74AE050E00F
S11301D0BE016F5F7F4F90E00E945B022FEF80E7CC
S11301E092E0215080409040E1F700C000006FE0B1
S11301F081E00E949100CE0101960E947600D4CF46
S11302001F920F920FB60F9211242F933F934F9387
S11302105F936F937F938F939F93AF93BF93EF936A
S1130220FF9380917800882339F0813051F40E9443
S113023038011092780005C00E943B0181E0809350
S11302407800FF91EF91BF91AF919F918F917F9132
S11302506F915F914F913F912F910F900FBE0F902F
S11302601F901895B89AB99A8DE683BFBB9A0895E2
S1130270C19AC0980895C09AC198089570D088F022
S11302809F5790F0B92F9927B751A0F0D1F0660F7E
S1130290771F881F991F1AF0BA95C9F712C0B13099
S11302A081F077D0B1E0089574C0672F782F882744
S11302B0B85F39F0B93FCCF3869577956795B395D8
S11302C0D9F73EF490958095709561957F4F8F4F47
S11302D09F4F0895E89409C097FB3EF4909580954C
S11302E0709561957F4F8F4F9F4F9923A9F0F92FF8
S11302F096E9BB279395F695879577956795B79576
S1130300F111F8CFFAF4BB0F11F460FF1BC06F5F5B
S11303107F4F8F4F9F4F16C0882311F096E911C06D
S1130320772321F09EE8872F762F05C0662371F08E
S113033096E8862F70E060E02AF09A95660F771FA2
S1130340881FDAF7880F9695879597F9089557FDD2
S11303509058440F551F59F05F3F71F04795880F2F
S113036097FB991F61F09F3F79F0879508951216C6
S113037013061406551FF2CF4695F1DF08C0161672
S113038017061806991FF1CF869571056105089423
S11303900895E894BB2766277727CB0197F908953A
S11303A00BD078C069D028F06ED018F0952309F0EE
S11303B05AC05FC01124EECFCADFA0F3959FD1F3DA
S11303C0950F50E0551F629FF001729FBB27F00DFF
S11303D0B11D639FAA27F00DB11DAA1F649F662754
S11303E0B00DA11D661F829F2227B00DA11D621FA3
S11303F0739FB00DA11D621F839FA00D611D221F5D
S1130400749F3327A00D611D231F849F600D211D40
S1130410822F762F6A2F11249F5750408AF0E1F0E3
S113042088234AF0EE0FFF1FBB1F661F771F881F2C
S113043091505040A9F79E3F510570F014C0AACFC7
S11304405F3FECF3983EDCF3869577956795B79517
S1130450F795E7959F5FC1F7FE2B880F911D969541
S1130460879597F9089597F99F6780E870E060E0B1
S113047008959FEF80EC089500240A941616170639
S113048018060906089500240A9412161306140681
S113049005060895092E0394000C11F4882352F0E4
S11304A0BB0F40F4BF2B11F460FF04C06F5F7F4F9C
S11304B08F4F9F4F08954532510520F4423010F07C
S11304C00C946602FB011082CB010895BB274A30CD
S11304D031F4992322F4BDE2909581959F4F0C94B9
S11304E07202BB27FB015527AA27880F991FAA1F51
S11304F0A41710F0A41B83955051B9F7A05DAA333B
S113050008F0A95DA193009779F7B111B193119205
S1130510CB010C948B02DC01FC01672F71917723D2
S1130520E1F7329704C07C916D9370836291AE17AA
S10D0530BF07C8F30895F894FFCF45
S113053A57656C636F6D6500005370656564204D83
S10B054A6F746F72203D000084
S9030000FC
